S01E00004D32535F4D53535F73625F4D53535F434D335F6170702E737265639A
S3152000000000000120910100207F03002081030020B1
S3152000001083030020850300208703002000000000C2
S3152000002000000000000000000000000089030020FE
S315200000308B030020000000008D0300208F0300208A
S3152000004091030020930300209503002097030020AE
S31520000050990300209B0300209D0300209F0300207E
S31520000060A1030020A3030020A5030020A70300204E
S31520000070A9030020AB030020AD030020AF0300201E
S31520000080B1030020B3030020B5030020B7030020EE
S31520000090B9030020BB030020BD030020BF030020BE
S315200000A0C1030020C3030020C5030020C70300208E
S315200000B0C9030020CB030020CD030020CF0300205E
S315200000C0D1030020D3030020D5030020D70300202E
S315200000D0D9030020DB030020DD030020DF030020FE
S315200000E0E1030020E3030020E5030020E7030020CE
S315200000F0E9030020EB030020ED030020EF0300209E
S31520000100F1030020F3030020F5030020F70300206D
S31520000110F9030020FB030020FD030020FF0300203D
S315200001200104002003040020050400200704002009
S31520000130090400200B0400200D0400200F040020D9
S3152000014011040020130400201504002017040020A9
S31520000150190400201B0400201D0400201F04002079
S315200001602104002023040020250400202704002049
S31520000170290400202B0400202D0400202F04002019
S31520000180310400203304002000000000000000009D
S315200001904FF0000BDFF8BE020068DFF8B6120968E0
S315200001A001F0030100F01C00142801D14BF0020BD2
S315200001B0002901D04BF0010BBBF1000F05D0A74859
S315200001C0A749DFF8722200F09FF8A64880470BF077
S315200001D0020ABAF1000F0CD0DFF86E02DFF86E12B9
S315200001E002680B680FB44FF000024FF0FF03026065
S315200001F00B609D489D4A9E4B022808D1DFF83E128F
S315200002000A60DFF842120A60DFF836120B60012816
S3152000021008D1DFF82E120A60DFF82A120A60DFF80A
S315200002201E120B609348002809D193489349944A9B
S3152000023000F032F893489449944A00F02DF89448F7
S315200002409449954A00F028F894489549DFF8E62124
S3152000025000F05AF8BBF1000F12D092489249DFF80D
S31520000260DA2100F051F80BF0020ABAF1000F07D09C
S315200002700FBC02600B6000BFAFF30080AFF30080BD
S31520000280DFF828020FF2030E00474FF000004FF070
S315200002900001DFF81CF2FEE72DE9F841884225D05F
S315200002A0B2EB010200D5FEE740EA010313F0030397
S315200002B002D000F01DF819E04FF00003904612110D
S315200002C0F7D09A421CBFF0C8F0C103F10103F8D160
S315200002D008F00F08B8F1000F08D004780C7000F170
S315200002E0010001F10101B8F10108F6D1BDE8F8815C
S315200002F008B54FF0000303780B7000F1010001F1FF
S315200003000101013AF7D108BD884237D000F0030633
S31520000310002E14D04FF00405A5EB06044FF0080775
S3152000032007FB06F8914669FA08F9002C07D080F8F1
S31520000330009069FA07F900F10100013CF5E74FF05A
S3152000034000060F46091A8846091191461446154695
S31520000350B14206D018BFA0E8340206F10106B14228
S31520000360F8D108F00F08B8F1000F07D002704FEA55
S31520000370322200F10100B8F10108F4E77047FEE7E8
S31520000380FEE7FEE7FEE7FEE7FEE7FEE7FEE7FEE71F
S31520000390FEE7FEE7FEE7FEE7FEE7FEE7FEE7FEE70F
S315200003A0FEE7FEE7FEE7FEE7FEE7FEE7FEE7FEE7FF
S315200003B0FEE7FEE7FEE7FEE7FEE7FEE7FEE7FEE7EF
S315200003C0FEE7FEE7FEE7FEE7FEE7FEE7FEE7FEE7DF
S315200003D0FEE7FEE7FEE7FEE7FEE7FEE7FEE7FEE7CF
S315200003E0FEE7FEE7FEE7FEE7FEE7FEE7FEE7FEE7BF
S315200003F0FEE7FEE7FEE7FEE7FEE7FEE7FEE7FEE7AF
S31520000400FEE7FEE7FEE7FEE7FEE7FEE7FEE7FEE79E
S31520000410FEE7FEE7FEE7FEE7FEE7FEE7FEE7FEE78E
S31520000420FEE7FEE7FEE7FEE7FEE7FEE7FEE7FEE77E
S31520000430FEE7FEE7704700000000A2A2A2A200800D
S3152000044003400880034010800340308003403480FE
S3152000045003403880034018080240000000F00020C6
S31520000460000001201107002000000000000000000D
S315200004700100000000000000000000200000002015
S3152000048090010020C0040020C0040020E00F0020BE
S31520000490E00F0020E00F0020F00F0020F00F0020DA
S315200004A0001000200010002000F00020590D002030
S315200004B029050020AFF30080AFF30080AFF3008062
S315200004C040F6F073C2F200031A780AB901201870B8
S315200004D0704700BF40F6E070C2F2000008B503681E
S315200004E02BB140F20003C0F2000303B1984708BDC8
S315200004F080B483B000AF786043F20003C4F20103F6
S315200005007A68C3F8882007F10C07BD4680BC70477F
S3152000051080B400AF43F20003C4F20103D3F888305D
S315200005201846BD4680BC704780B582B000AF00F04B
S315200005307BF84FF000004FF0050100F0CBF84FF0AC
S3152000054001004FF0050100F0C5F84FF002004FF012
S31520000550050100F0BFF84FF003004FF0050100F051
S31520000560B9F800F00DF8FFF7D3FF03467B607B68F0
S315200005706FEA03037B607868FFF7BAFFF1E700BFF5
S3152000058080B483B000AF40F6E473C2F200031B6868
S315200005904FEAD3137B6003E07B6803F1FF337B6074
S315200005A07B68002BF8D107F10C07BD4680BC70474D
S315200005B080B483B000AF0346FB714EF20013CEF237
S315200005C0000397F907204FEA5212F97901F01F012B
S315200005D04FF0010000FA01F102F1200243F8221047
S315200005E007F10C07BD4680BC704700BF80B483B0BE
S315200005F000AF0346FB714EF20013CEF2000397F9CB
S3152000060007204FEA5212F97901F01F014FF001003D
S3152000061000FA01F102F1600243F8221007F10C07FB
S31520000620BD4680BC704700BF80B582B000AF48F29F
S315200006300003C4F2030348F20002C4F20302926CE0
S3152000064042F480129A6448F20003C4F2030348F28B
S315200006500002C4F20302926C42F0F0729A644FF0E8
S3152000066000037B6017E07A6840F62863C2F2000335
S315200006709B5C5BB21846FFF79BFF7A6840F62863BF
S31520000680C2F200039B5C5BB21846FFF7AFFF7B68A4
S3152000069003F101037B607B681F2BE4D948F200033A
S315200006A0C4F2030348F20002C4F20302926C22F061
S315200006B0F0729A6448F20003C4F2030348F200027F
S315200006C0C4F20302926C22F480129A6407F108079E
S315200006D0BD4680BD80B485B000AF03463960FB714E
S315200006E0FB79FB60FB681F2B00D900BEFB681F2B24
S315200006F008D8FA6840F6A853C2F2000353F822300D
S315200007003A681A6007F11407BD4680BC704700BFDF
S3152000071080B584B000AF42F20003C4F202035B69E5
S31520000720FB6000F0E7FA4EF60053CEF200034EF6D9
S315200007300052CEF20002526942F400725A6148F227
S315200007400003C4F203039B68002B0BD140F6986389
S31520000750C2F200031B6840F69C60C2F200001946F4
S3152000076000F08EF8FFF766FE00F002F9FA684FF601
S31520000770FF73C0F206039A4211D942F20003C4F273
S3152000078002034FF001021A6042F20003C4F2020390
S315200007905B6803F002037B607B68002BF4D000F0DB
S315200007A0F3F848F20003C4F2030348F20002C4F24D
S315200007B00302926C22F480329A6442F20003C4F25D
S315200007C0020342F20002C4F20202126842F003025D
S315200007D01A6042F20003C4F202035B6803F00103CD
S315200007E0BB60BB68002BF4D007F11007BD4680BD67
S315200007F080B487B000AFF860B9607A604FF000032C
S315200008007B610FE07B694FEA8302FB6813447A69B8
S315200008104FEA4201BA680A4412881A607B6903F1DA
S3152000082001037B617A697B689A42EBD307F11C0747
S31520000830BD4680BC704700BF80B485B000AF7860ED
S3152000084039604FF00003FB6010E0FB684FEAC302FB
S315200008507B6813441B68FA684FEAC2017A680A4427
S3152000086052681A60FB6803F10103FB60FA683B6873
S315200008709A42EAD307F11407BD4680BC704700BFF1
S3152000088080B584B000AF786039607B68FB603B68D8
S31520000890BB60B868F9684FF03902FFF7A9FF7B689B
S315200008A003F17203FB603B6803F50773BB60B8680E
S315200008B0F9684FF04102FFF79BFF7B68B3F8F430ED
S315200008C01A463B68C3F800247B68B3F8F6301A460C
S315200008D03B68C3F804247B68B3F8F8301A463B68B3
S315200008E0C3F808247B68B3F8FA301A463B68C3F885
S315200008F00C247B68B3F8FC301A463B68C3F81024F6
S315200009007B68B3F8FE301A463B68C3F814247B682C
S31520000910B3F800311A463B68C3F818247B68B3F84D
S3152000092002311A463B68C3F81C247B68B3F80431AD
S315200009301A463B68C3F840247B68B3F806311A464A
S315200009403B68C3F844247B68B3F808311A463B68F1
S31520000950C3F848243B684FF001021A603B68D3F87D
S31520000960E430002BFAD007F11007BD4680BD00BF4A
S3152000097080B500AF40F6A870C2F200004FF0030128
S31520000980FFF75AFF80BD00BF80B500AF40F6A870C4
S31520000990C2F200004FF003014FF0000200F002F80F
S315200009A080BD00BF80B495B000AFF860B9607A60B2
S315200009B04FF080037B634FF48053BB634FF00103FA
S315200009C0FB634FF040033B6440F68863C2F20003AA
S315200009D007F1200C0FCB8CE80F00BB6B03F1804096
S315200009E000F52030BB6B03F1804101F53031BB6B44
S315200009F003F1804202F54032BB6B03F1804303F5DD
S31520000A00503338617961BA61FB614FF000033B6373
S31520000A1060E07A6840F67863C2F2000353F8221049
S31520000A203A6B13464FEA430313444FEA83030B44BE
S31520000A301B6803F5005303F128031B68BB64BB6CDA
S31520000A4023F47063BB647A6840F67863C2F20003CD
S31520000A5053F822103A6B13464FEA430313444FEAE6
S31520000A6083030B441B89BA6C42EA0303BB647A688E
S31520000A7040F67863C2F2000353F822103A6B13460D
S31520000A804FEA430313444FEA83030B441B6803F5E1
S31520000A90005303F12803BA6C1A607A6840F678632B
S31520000AA0C2F2000353F822103A6B13464FEA43036F
S31520000AB013444FEA83030B445B68D3F8C0207B6B57
S31520000AC002EA03037B647B6C002BE6D03B6B03F1CD
S31520000AD001033B637A6840F67863C2F2000353F859
S31520000AE022103A6B13464FEA430313444FEA83031B
S31520000AF00B441B89002B8CD14FF000033B6322E073
S31520000B003B6B4FEAC302FB6813441B68FB647B689C
S31520000B104FEA830307F15002134453F8402CFB6C31
S31520000B209A420CD93B6B4FEAC302FB6813441B68FD
S31520000B303A6B4FEAC201FA680A4452681A603B6B64
S31520000B4003F101033B633A6BBB689A42D8D34FF05B
S31520000B5000033B638EE07A6840F67863C2F20003B6
S31520000B6053F822103A6B13464FEA430313444FEAD5
S31520000B7083030B445B89012B3CD17B684FEA8303BB
S31520000B8007F15002134453F8301C7B684FEA830365
S31520000B9007F15002134453F8303C03F5005303F198
S31520000BA008031A68FB6B6FEA030302EA030201F5E6
S31520000BB0005303F108031A607B684FEA830307F1A9
S31520000BC05002134453F8301C7B684FEA830307F125
S31520000BD05002134453F8303C03F5005303F1080345
S31520000BE01A68FB6B42EA030201F5005303F108037E
S31520000BF01A603BE07B684FEA830307F150021344F7
S31520000C0053F8301C7B684FEA830307F150021344E4
S31520000C1053F8303C03F5005303F108031A683B6C84
S31520000C206FEA030302EA030201F5005303F1080306
S31520000C301A607B684FEA830307F15002134453F886
S31520000C40301C7B684FEA830307F15002134453F8A4
S31520000C50303C03F5005303F108031A683B6C42EA63
S31520000C60030201F5005303F108031A603B6B03F1FD
S31520000C7001033B637A6840F67863C2F2000353F8B7
S31520000C8022103A6B13464FEA430313444FEA830379
S31520000C900B441B89002B7FF45EAF07F15407BD463A
S31520000CA080BC704780B483B000AF48F20003C4F222
S31520000CB00303D3F84C317B607A684FF602039A42DD
S31520000CC006D04FF60203C0F201039A4204D007E091
S31520000CD04FF001033B6006E04FF002033B6002E069
S31520000CE04FF000033B603B68184607F10C07BD46F2
S31520000CF080BC704780B582B000AFFFF7D3FF0346B4
S31520000D007B607B68012B01D100F004F807F108070E
S31520000D10BD4680BD80B400AF48F20003C4F2030391
S31520000D2048F20002C4F20302D2F8982042F48072FC
S31520000D30C3F8982048F20003C4F2030348F20002E5
S31520000D40C4F20302D2F8982022F08062C3F89820D9
S31520000D50BD4680BC704700BF70B540F6D87640F6D9
S31520000D60D875C2F20006C2F20005761BB61006D070
S31520000D70002455F8243001349847A642F9D840F685
S31520000D80D87540F6DC76C2F20005C2F20006761B64
S31520000D9000F016F9B61006D0002455F82430013498
S31520000DA09847A642F9D870BD003001400430014072
S31520000DB0083001400C300140103001401430014011
S31520000DC0183001401C3001402030014024300140C1
S31520000DD0283001402C300140303001403430014071
S31520000DE0383001403C300140403001404430014021
S31520000DF0483001404C3001405030014054300140D1
S31520000E00583001405C300140603001406430014080
S31520000E10683001406C300140703001407430014030
S31520000E20783001407C30014032333435363738391A
S31520000E303A3B3C3D3E3F4041424344454647484974
S31520000E404A4B4C4D4E4F5051000000000000000010
S31520000E50000000000000000000000000000000006C
S31520000E60000000000000000000000000000000005C
S31520000E700000000000000000480E0020540E002054
S31520000E80600E00206C0E00200080024000C0024050
S31520000E90000003400040034000080240000000001C
S31520000EA088119002020000000200880800003F33EB
S31520000EB0FFFF7777770701000042080052090200FA
S31520000EC00000000000006500E50100002000780118
S31520000ED000003001040000000033000000000C0474
S31520000EE0000000000000020000008020F8800700BB
S31520000EF0F880070000020000000004000300400004
S31520000F0000000000000000000903010000000000AE
S31520000F100000800000000000030000000000000028
S31520000F20000000000B000000000000000000800010
S31520000F30042000010800000000000000000000005E
S31520000F4000000000000000000000000050400105E5
S31520000F5014500000080018000000050000000000E2
S31520000F600000000000000000000000005000010505
S31520000F7010500000000000000000000000004300A8
S31520000F800000030001000100000000000000010035
S31520000F90000000000000000000000000000000002B
S31520000FA0000000000000000028A002401C010000F4
S31520000FB008900240F800000028A002401C0F000004
S31520000FC0F8B500BFF8BC08BC9E467047F8B500BF10
S31520000FD0F8BC08BC9E467047D5040020C1040020FA
S31520000FE00000000080F5E409000000000000000079
S7052000019148
